:100000000FC016C015C014C013C012C011C010C05C
:100010000FC00EC00DC00CC00BC00AC009C008C084
:1000200011271FBFCFE5D0E0DEBFCDBF02D030C06B
:10003000E7CFF8940ED01AD0789427D021D04FEF84
:100040005FEB61E2415050406040E1F700C00000CA
:10005000F4CFDA9A4DB345644DBB0895EE9AEE990C
:10006000FECF4AB389B390E0942B089547E150E066
:100070005AB949B94DB148614DB946E04CB90895F6
:100080004EB145FFFDCF88B90895E8DF80E00895BF
:04009000F894FFCF12
:00000001FF
